{
  "abi": [
    {
      "inputs": [
        {
          "internalType": "address",
          "name": "_reality",
          "type": "address"
        },
        {
          "internalType": "address",
          "name": "_usdc",
          "type": "address"
        }
      ],
      "stateMutability": "nonpayable",
      "type": "constructor"
    },
    {
      "anonymous": false,
      "inputs": [
        {
          "indexed": false,
          "internalType": "string",
          "name": "answerStatus",
          "type": "string"
        },
        {
          "indexed": false,
          "internalType": "bytes32",
          "name": "questionID",
          "type": "bytes32"
        }
      ],
      "name": "AnswerStatus",
      "type": "event"
    },
    {
      "anonymous": false,
      "inputs": [
        {
          "indexed": false,
          "internalType": "address",
          "name": "_claimer",
          "type": "address"
        },
        {
          "indexed": false,
          "internalType": "uint256",
          "name": "_amountClaimed",
          "type": "uint256"
        }
      ],
      "name": "Claimed",
      "type": "event"
    },
    {
      "anonymous": false,
      "inputs": [
        {
          "indexed": true,
          "internalType": "address",
          "name": "previousOwner",
          "type": "address"
        },
        {
          "indexed": true,
          "internalType": "address",
          "name": "newOwner",
          "type": "address"
        }
      ],
      "name": "OwnershipTransferred",
      "type": "event"
    },
    {
      "anonymous": false,
      "inputs": [
        {
          "indexed": false,
          "internalType": "string",
          "name": "questionSubmitted",
          "type": "string"
        },
        {
          "indexed": false,
          "internalType": "bytes32",
          "name": "questionID",
          "type": "bytes32"
        }
      ],
      "name": "QuestionSubmitted",
      "type": "event"
    },
    {
      "inputs": [
        {
          "internalType": "address",
          "name": "_add",
          "type": "address"
        },
        {
          "internalType": "uint256",
          "name": "_amount",
          "type": "uint256"
        }
      ],
      "name": "addressConcatLeaf",
      "outputs": [
        {
          "internalType": "string",
          "name": "",
          "type": "string"
        }
      ],
      "stateMutability": "view",
      "type": "function"
    },
    {
      "inputs": [],
      "name": "arbitrator",
      "outputs": [
        {
          "internalType": "address",
          "name": "",
          "type": "address"
        }
      ],
      "stateMutability": "view",
      "type": "function"
    },
    {
      "inputs": [],
      "name": "challengePeriod",
      "outputs": [
        {
          "internalType": "uint32",
          "name": "",
          "type": "uint32"
        }
      ],
      "stateMutability": "view",
      "type": "function"
    },
    {
      "inputs": [
        {
          "internalType": "uint256",
          "name": "_effectiveDate",
          "type": "uint256"
        }
      ],
      "name": "checkAnswer",
      "outputs": [],
      "stateMutability": "nonpayable",
      "type": "function"
    },
    {
      "inputs": [
        {
          "internalType": "uint256",
          "name": "_effectiveDate",
          "type": "uint256"
        }
      ],
      "name": "checkAnswerStatus",
      "outputs": [
        {
          "internalType": "bool",
          "name": "",
          "type": "bool"
        }
      ],
      "stateMutability": "view",
      "type": "function"
    },
    {
      "inputs": [
        {
          "internalType": "uint256",
          "name": "_amountEx",
          "type": "uint256"
        },
        {
          "internalType": "uint256",
          "name": "_effectiveDate",
          "type": "uint256"
        },
        {
          "internalType": "uint256",
          "name": "_position",
          "type": "uint256"
        }
      ],
      "name": "claim",
      "outputs": [],
      "stateMutability": "nonpayable",
      "type": "function"
    },
    {
      "inputs": [
        {
          "internalType": "string",
          "name": "_root",
          "type": "string"
        }
      ],
      "name": "getDateByRoot",
      "outputs": [
        {
          "internalType": "uint256",
          "name": "",
          "type": "uint256"
        }
      ],
      "stateMutability": "view",
      "type": "function"
    },
    {
      "inputs": [
        {
          "internalType": "uint256",
          "name": "_effectiveDate",
          "type": "uint256"
        }
      ],
      "name": "getQIDByDate",
      "outputs": [
        {
          "internalType": "bytes32",
          "name": "",
          "type": "bytes32"
        }
      ],
      "stateMutability": "view",
      "type": "function"
    },
    {
      "inputs": [
        {
          "internalType": "uint256",
          "name": "_effectiveDate",
          "type": "uint256"
        }
      ],
      "name": "getRootByDate",
      "outputs": [
        {
          "internalType": "string",
          "name": "",
          "type": "string"
        }
      ],
      "stateMutability": "view",
      "type": "function"
    },
    {
      "inputs": [
        {
          "internalType": "uint256",
          "name": "_effectiveDate",
          "type": "uint256"
        }
      ],
      "name": "getTreeByDate",
      "outputs": [
        {
          "internalType": "string[]",
          "name": "",
          "type": "string[]"
        }
      ],
      "stateMutability": "view",
      "type": "function"
    },
    {
      "inputs": [
        {
          "internalType": "uint256",
          "name": "",
          "type": "uint256"
        },
        {
          "internalType": "address",
          "name": "",
          "type": "address"
        }
      ],
      "name": "mapDateAddressPay",
      "outputs": [
        {
          "internalType": "bool",
          "name": "",
          "type": "bool"
        }
      ],
      "stateMutability": "view",
      "type": "function"
    },
    {
      "inputs": [
        {
          "internalType": "uint256",
          "name": "",
          "type": "uint256"
        }
      ],
      "name": "mapDateQuestionID",
      "outputs": [
        {
          "internalType": "bytes32",
          "name": "",
          "type": "bytes32"
        }
      ],
      "stateMutability": "view",
      "type": "function"
    },
    {
      "inputs": [
        {
          "internalType": "uint256",
          "name": "",
          "type": "uint256"
        }
      ],
      "name": "mapDateRoot",
      "outputs": [
        {
          "internalType": "string",
          "name": "",
          "type": "string"
        }
      ],
      "stateMutability": "view",
      "type": "function"
    },
    {
      "inputs": [
        {
          "internalType": "uint256",
          "name": "",
          "type": "uint256"
        }
      ],
      "name": "mapDateToAnswer",
      "outputs": [
        {
          "internalType": "bool",
          "name": "",
          "type": "bool"
        }
      ],
      "stateMutability": "view",
      "type": "function"
    },
    {
      "inputs": [
        {
          "internalType": "uint256",
          "name": "",
          "type": "uint256"
        },
        {
          "internalType": "uint256",
          "name": "",
          "type": "uint256"
        }
      ],
      "name": "mapDateTree",
      "outputs": [
        {
          "internalType": "string",
          "name": "",
          "type": "string"
        }
      ],
      "stateMutability": "view",
      "type": "function"
    },
    {
      "inputs": [
        {
          "internalType": "string",
          "name": "",
          "type": "string"
        }
      ],
      "name": "mapRootToDate",
      "outputs": [
        {
          "internalType": "uint256",
          "name": "",
          "type": "uint256"
        }
      ],
      "stateMutability": "view",
      "type": "function"
    },
    {
      "inputs": [],
      "name": "owner",
      "outputs": [
        {
          "internalType": "address",
          "name": "",
          "type": "address"
        }
      ],
      "stateMutability": "view",
      "type": "function"
    },
    {
      "inputs": [
        {
          "internalType": "string",
          "name": "_merkleroot",
          "type": "string"
        },
        {
          "internalType": "string[]",
          "name": "_treeHash",
          "type": "string[]"
        }
      ],
      "name": "postQuestion",
      "outputs": [
        {
          "internalType": "uint256",
          "name": "",
          "type": "uint256"
        }
      ],
      "stateMutability": "nonpayable",
      "type": "function"
    },
    {
      "inputs": [],
      "name": "renounceOwnership",
      "outputs": [],
      "stateMutability": "nonpayable",
      "type": "function"
    },
    {
      "inputs": [
        {
          "internalType": "uint256",
          "name": "",
          "type": "uint256"
        }
      ],
      "name": "rootExists",
      "outputs": [
        {
          "internalType": "bool",
          "name": "",
          "type": "bool"
        }
      ],
      "stateMutability": "view",
      "type": "function"
    },
    {
      "inputs": [],
      "name": "space",
      "outputs": [
        {
          "internalType": "string",
          "name": "",
          "type": "string"
        }
      ],
      "stateMutability": "view",
      "type": "function"
    },
    {
      "inputs": [
        {
          "internalType": "string",
          "name": "_input1",
          "type": "string"
        },
        {
          "internalType": "string",
          "name": "_input2",
          "type": "string"
        }
      ],
      "name": "stringToHash",
      "outputs": [
        {
          "internalType": "string",
          "name": "",
          "type": "string"
        }
      ],
      "stateMutability": "pure",
      "type": "function"
    },
    {
      "inputs": [
        {
          "internalType": "bytes32",
          "name": "_data",
          "type": "bytes32"
        }
      ],
      "name": "toHex",
      "outputs": [
        {
          "internalType": "string",
          "name": "",
          "type": "string"
        }
      ],
      "stateMutability": "pure",
      "type": "function"
    },
    {
      "inputs": [
        {
          "internalType": "address",
          "name": "newOwner",
          "type": "address"
        }
      ],
      "name": "transferOwnership",
      "outputs": [],
      "stateMutability": "nonpayable",
      "type": "function"
    },
    {
      "inputs": [
        {
          "internalType": "string",
          "name": "root",
          "type": "string"
        },
        {
          "internalType": "string",
          "name": "leaf",
          "type": "string"
        },
        {
          "internalType": "string[]",
          "name": "leaves",
          "type": "string[]"
        },
        {
          "internalType": "uint256",
          "name": "position",
          "type": "uint256"
        }
      ],
      "name": "verify",
      "outputs": [
        {
          "internalType": "bool",
          "name": "",
          "type": "bool"
        }
      ],
      "stateMutability": "view",
      "type": "function"
    }
  ],
  "bytecode": {
    "object": "0x6000805463ffffffff60a01b19166102a360a71b179055600180546001600160a01b031916815560c06040526080908152602d60f81b60a052600290620000479082620001aa565b503480156200005557600080fd5b506040516200244638038062002446833981016040819052620000789162000293565b6200008333620000b5565b600a80546001600160a01b039384166001600160a01b031991821617909155600b8054929093169116179055620002cb565b600080546001600160a01b038381166001600160a01b0319831681178455604051919092169283917f8be0079c531659141344cd1fd0a4f28419497f9722a3daafe3b4186f6b6457e09190a35050565b634e487b7160e01b600052604160045260246000fd5b600181811c908216806200013057607f821691505b6020821081036200015157634e487b7160e01b600052602260045260246000fd5b50919050565b601f821115620001a557600081815260208120601f850160051c81016020861015620001805750805b601f850160051c820191505b81811015620001a1578281556001016200018c565b5050505b505050565b81516001600160401b03811115620001c657620001c662000105565b620001de81620001d784546200011b565b8462000157565b602080601f831160018114620002165760008415620001fd5750858301515b600019600386901b1c1916600185901b178555620001a1565b600085815260208120601f198616915b82811015620002475788860151825594840194600190910190840162000226565b5085821015620002665787850151600019600388901b60f8161c191681555b5050505050600190811b01905550565b80516001600160a01b03811681146200028e57600080fd5b919050565b60008060408385031215620002a757600080fd5b620002b28362000276565b9150620002c26020840162000276565b90509250929050565b61216b80620002db6000396000f3fe608060405234801561001057600080fd5b50600436106101735760003560e01c8063715018a6116100de578063bffd889311610097578063e20dee5011610071578063e20dee50146103ab578063efa9a9be146103d6578063f2fde38b146103e9578063f3f480d9146103fc57600080fd5b8063bffd889314610362578063cd09abec14610385578063e1964a691461039857600080fd5b8063715018a6146102db57806371c0d915146102e557806376a5cef3146103085780637d77869e1461032b5780638da5cb5b1461033e578063ad891ad41461034f57600080fd5b806349e894d81161013057806349e894d8146102375780634d0676d81461024a578063561444eb1461026a578063581d8f361461027d578063657d7ab8146102905780636cc6cde1146102b057600080fd5b806314a0db9b146101785780631e131bf2146101bb57806327af9e38146101db578063291637a2146101e35780633127718d146101f65780633c64678714610209575b600080fd5b6101a661018636600461188b565b600960209081526000928352604080842090915290825290205460ff1681565b60405190151581526020015b60405180910390f35b6101ce6101c93660046118b7565b610428565b6040516101b29190611931565b6101ce61049d565b6101ce6101f1366004611944565b61052b565b6101ce610204366004611a14565b6105cd565b610229610217366004611944565b60009081526005602052604090205490565b6040519081526020016101b2565b6101ce610245366004611944565b610648565b610229610258366004611944565b60056020526000908152604090205481565b6101ce610278366004611a78565b610694565b61022961028b366004611a9a565b6106cc565b6102a361029e366004611944565b6106f4565b6040516101b29190611ad7565b6001546102c3906001600160a01b031681565b6040516001600160a01b0390911681526020016101b2565b6102e36107e0565b005b6101a66102f3366004611944565b60009081526008602052604090205460ff1690565b6101a6610316366004611944565b60046020526000908152604090205460ff1681565b6101a6610339366004611bd8565b6107f4565b6000546001600160a01b03166102c3565b6102e361035d366004611944565b6109e6565b6101a6610370366004611944565b60086020526000908152604090205460ff1681565b6101ce610393366004611944565b610c41565b6102296103a6366004611c68565b610c5a565b6102296103b9366004611a9a565b805160208183018101805160078252928201919093012091525481565b6102e36103e4366004611cc2565b610e6b565b6102e36103f7366004611cee565b6111c0565b60005461041390600160a01b900463ffffffff1681565b60405163ffffffff90911681526020016101b2565b6060600061043533611239565b905060006104428461124f565b9050600082600260405160200161045a929190611d43565b604051602081830303815290604052905060008183604051602001610480929190611dd0565b60408051601f198184030181529190529450505050505b92915050565b600280546104aa90611d09565b80601f01602080910402602001604051908101604052809291908181526020018280546104d690611d09565b80156105235780601f106104f857610100808354040283529160200191610523565b820191906000526020600020905b81548152906001019060200180831161050657829003601f168201915b505050505081565b600081815260036020526040902080546060919061054890611d09565b80601f016020809104026020016040519081016040528092919081815260200182805461057490611d09565b80156105c15780601f10610596576101008083540402835291602001916105c1565b820191906000526020600020905b8154815290600101906020018083116105a457829003601f168201915b50505050509050919050565b6060610641600284846040516020016105e7929190611dd0565b60408051601f198184030181529082905261060191611dff565b602060405180830381855afa15801561061e573d6000803e3d6000fd5b5050506040513d601f19601f820116820180604052508101906102459190611e1b565b9392505050565b6060610653826112e2565b610660608084901b6112e2565b60405161060f60f31b6020820152602281019290925260428201526062016040516020818303038152906040529050919050565b600660205281600052604060002081815481106106b057600080fd5b906000526020600020016000915091505080546104aa90611d09565b60006007826040516106de9190611dff565b9081526020016040518091039020549050919050565b606060066000838152602001908152602001600020805480602002602001604051908101604052809291908181526020016000905b828210156107d557838290600052602060002001805461074890611d09565b80601f016020809104026020016040519081016040528092919081815260200182805461077490611d09565b80156107c15780601f10610796576101008083540402835291602001916107c1565b820191906000526020600020905b8154815290600101906020018083116107a457829003601f168201915b505050505081526020019060010190610729565b505050509050919050565b6107e8611494565b6107f260006114ee565b565b60008061082a604051806020016040528060008152508560008151811061081d5761081d611e34565b60200260200101516105cd565b905060005b845181101561090057600061085f6040518060200160405280600081525087848151811061081d5761081d611e34565b9050600061087c60405180602001604052806000815250896105cd565b9050858314801561088b575082155b15610898578093506108eb565b826000036108cd576108c6604051806020016040528060008152508860008151811061081d5761081d611e34565b93506108eb565b8583036108de576108c684826105cd565b6108e884836105cd565b93505b505080806108f890611e60565b91505061082f565b506002866040516020016109149190611dff565b60408051601f198184030181529082905261092e91611dff565b602060405180830381855afa15801561094b573d6000803e3d6000fd5b5050506040513d601f19601f8201168201806040525081019061096e9190611e1b565b6002826040516020016109819190611dff565b60408051601f198184030181529082905261099b91611dff565b602060405180830381855afa1580156109b8573d6000803e3d6000fd5b5050506040513d601f19601f820116820180604052508101906109db9190611e1b565b149695505050505050565b60008181526004602052604090205460ff16610a495760405162461bcd60e51b815260206004820152601c60248201527f4e6f20526f6f742053746f72656420666f72207468617420646174650000000060448201526064015b60405180910390fd5b60008181526008602052604090205460ff1615610aa85760405162461bcd60e51b815260206004820152601760248201527f416e7377657220686173206265656e20636865636b65640000000000000000006044820152606401610a40565b600a5460008281526005602052604080822054905163a462fb7b60e01b815291926001600160a01b03169163a462fb7b91610ae99160040190815260200190565b602060405180830381865afa158015610b06573d6000803e3d6000fd5b505050506040513d601f19601f82011682018060405250810190610b2a9190611e1b565b90506001819003610bbd576000828152600860209081526040808320805460ff191660011790556005825291829020548251838152601693810193909352751c9bdbdd081a185cc81899595b881858d8d95c1d195960521b6060840152908201527f774525447b3c80128a3cd56e15f1bef3defbb37b52d174bf0268d9a39f4f3576906080015b60405180910390a15050565b6000828152600860209081526040808320805460ff191690556005825291829020548251838152601a938101939093527f726f6f7420686173206e6f74206265656e2061636365707465640000000000006060840152908201527f774525447b3c80128a3cd56e15f1bef3defbb37b52d174bf0268d9a39f4f357690608001610bb1565b600360205260009081526040902080546104aa90611d09565b6000610c64611494565b6060600042905080600786604051610c7c9190611dff565b908152604080516020928190038301902092909255600083815260068252919091208551610cac928701906117b2565b506000818152600360205260409020610cc58682611ec8565b506000818152600460205260408120805460ff191660011790555b8451811015610d395782858281518110610cfc57610cfc611e34565b6020026020010151604051602001610d15929190611f88565b60405160208183030381529060405292508080610d3190611e60565b915050610ce0565b506000610d458261124f565b8387604051602001610d5993929190611fd3565b60408051808303601f1901815290829052600a546001546000805463762c38fd60e01b86529395506001600160a01b039283169463762c38fd94610db894929388931691600160a01b90910463ffffffff169084908190600401612087565b6020604051808303816000875af1158015610dd7573d6000803e3d6000fd5b505050506040513d601f19601f82011682018060405250810190610dfb9190611e1b565b60008381526005602052604090819020829055517f0abbd316cde29430a32db2af046d35e125b792bc6dd0ef90f92e143b52ec803091610e5a9160408082526003908201526279657360e81b6060820152602081019190915260800190565b60405180910390a150949350505050565b60008281526008602052604081205460ff1615159003610e8e57610e8e826109e6565b600082815260066020908152604080832080548251818502810185019093528083529192909190849084015b82821015610f66578382906000526020600020018054610ed990611d09565b80601f0160208091040260200160405190810160405280929190818152602001828054610f0590611d09565b8015610f525780601f10610f2757610100808354040283529160200191610f52565b820191906000526020600020905b815481529060010190602001808311610f3557829003601f168201915b505050505081526020019060010190610eba565b5050505090506000600360008581526020019081526020016000208054610f8c90611d09565b80601f0160208091040260200160405190810160405280929190818152602001828054610fb890611d09565b80156110055780601f10610fda57610100808354040283529160200191611005565b820191906000526020600020905b815481529060010190602001808311610fe857829003601f168201915b5050505050905060006110183387610428565b600086815260096020908152604080832033845290915290205490915060ff161561107b5760405162461bcd60e51b815260206004820152601360248201527210d85b1b195c88185b1c9958591e481c185a59606a1b6044820152606401610a40565b6000611089838386886107f4565b9050806110e45760405162461bcd60e51b815260206004820152602360248201527f43616c6c657220646f6573206e6f74206d61746368206c65616620706f73697460448201526234b7b760e91b6064820152608401610a40565b600b5460405163a9059cbb60e01b8152336004820152602481018990526001600160a01b039091169063a9059cbb906044016020604051808303816000875af1158015611135573d6000803e3d6000fd5b505050506040513d601f19601f8201168201806040525081019061115991906120d2565b5060008681526009602090815260408083203380855290835292819020805460ff1916600117905580519283529082018990527fd8138f8a3f377c5259ca548e70e4c2de94f129f5a11036a15b69513cba2b426a910160405180910390a150505050505050565b6111c8611494565b6001600160a01b03811661122d5760405162461bcd60e51b815260206004820152602660248201527f4f776e61626c653a206e6577206f776e657220697320746865207a65726f206160448201526564647265737360d01b6064820152608401610a40565b611236816114ee565b50565b60606104976001600160a01b038316601461153e565b6060600061125c836116da565b600101905060008167ffffffffffffffff81111561127c5761127c61195d565b6040519080825280601f01601f1916602001820160405280156112a6576020820181803683370190505b5090508181016020015b600019016f181899199a1a9b1b9c1cb0b131b232b360811b600a86061a8153600a85049450846112b057509392505050565b7aff00000000000000ff00000000000000ff00000000000000ff00006bffffffff0000000000000000604083901c90811663ffffffff60c01b84161760201c63ffffffff60601b919091166001600160e01b031984161717601081901c9182167eff00000000000000ff00000000000000ff00000000000000ff000000000000821617600890811c7bff00000000000000ff00000000000000ff00000000000000ff000000939093167fff00000000000000ff00000000000000ff00000000000000ff000000000000009290921691909117919091179081901c7e0f000f000f000f000f000f000f000f000f000f000f000f000f000f000f000f167f0f000f000f000f000f000f000f000f000f000f000f000f000f000f000f000f00600492831c161790611430827f06060606060606060606060606060606060606060606060606060606060606066120f4565b901c7f0f0f0f0f0f0f0f0f0f0f0f0f0f0f0f0f0f0f0f0f0f0f0f0f0f0f0f0f0f0f0f0f1660276114609190612107565b61148a827f30303030303030303030303030303030303030303030303030303030303030306120f4565b61049791906120f4565b6000546001600160a01b031633146107f25760405162461bcd60e51b815260206004820181905260248201527f4f776e61626c653a2063616c6c6572206973206e6f7420746865206f776e65726044820152606401610a40565b600080546001600160a01b038381166001600160a01b0319831681178455604051919092169283917f8be0079c531659141344cd1fd0a4f28419497f9722a3daafe3b4186f6b6457e09190a35050565b6060600061154d836002612107565b6115589060026120f4565b67ffffffffffffffff8111156115705761157061195d565b6040519080825280601f01601f19166020018201604052801561159a576020820181803683370190505b509050600360fc1b816000815181106115b5576115b5611e34565b60200101906001600160f81b031916908160001a905350600f60fb1b816001815181106115e4576115e4611e34565b60200101906001600160f81b031916908160001a9053506000611608846002612107565b6116139060016120f4565b90505b600181111561168b576f181899199a1a9b1b9c1cb0b131b232b360811b85600f166010811061164757611647611e34565b1a60f81b82828151811061165d5761165d611e34565b60200101906001600160f81b031916908160001a90535060049490941c936116848161211e565b9050611616565b5083156106415760405162461bcd60e51b815260206004820181905260248201527f537472696e67733a20686578206c656e67746820696e73756666696369656e746044820152606401610a40565b60008072184f03e93ff9f4daa797ed6e38ed64bf6a1f0160401b83106117195772184f03e93ff9f4daa797ed6e38ed64bf6a1f0160401b830492506040015b6d04ee2d6d415b85acef81000000008310611745576d04ee2d6d415b85acef8100000000830492506020015b662386f26fc10000831061176357662386f26fc10000830492506010015b6305f5e100831061177b576305f5e100830492506008015b612710831061178f57612710830492506004015b606483106117a1576064830492506002015b600a83106104975760010192915050565b8280548282559060005260206000209081019282156117f8579160200282015b828111156117f857825182906117e89082611ec8565b50916020019190600101906117d2565b50611804929150611808565b5090565b8082111561180457600061181c8282611825565b50600101611808565b50805461183190611d09565b6000825580601f10611841575050565b601f01602090049060005260206000209081019061123691905b80821115611804576000815560010161185b565b80356001600160a01b038116811461188657600080fd5b919050565b6000806040838503121561189e57600080fd5b823591506118ae6020840161186f565b90509250929050565b600080604083850312156118ca57600080fd5b6118d38361186f565b946020939093013593505050565b60005b838110156118fc5781810151838201526020016118e4565b50506000910152565b6000815180845261191d8160208601602086016118e1565b601f01601f19169290920160200192915050565b6020815260006106416020830184611905565b60006020828403121561195657600080fd5b5035919050565b634e487b7160e01b600052604160045260246000fd5b604051601f8201601f1916810167ffffffffffffffff8111828210171561199c5761199c61195d565b604052919050565b600082601f8301126119b557600080fd5b813567ffffffffffffffff8111156119cf576119cf61195d565b6119e2601f8201601f1916602001611973565b8181528460208386010111156119f757600080fd5b816020850160208301376000918101602001919091529392505050565b60008060408385031215611a2757600080fd5b823567ffffffffffffffff80821115611a3f57600080fd5b611a4b868387016119a4565b93506020850135915080821115611a6157600080fd5b50611a6e858286016119a4565b9150509250929050565b60008060408385031215611a8b57600080fd5b50508035926020909101359150565b600060208284031215611aac57600080fd5b813567ffffffffffffffff811115611ac357600080fd5b611acf848285016119a4565b949350505050565b6000602080830181845280855180835260408601915060408160051b870101925083870160005b82811015611b2c57603f19888603018452611b1a858351611905565b94509285019290850190600101611afe565b5092979650505050505050565b600082601f830112611b4a57600080fd5b8135602067ffffffffffffffff80831115611b6757611b6761195d565b8260051b611b76838201611973565b9384528581018301938381019088861115611b9057600080fd5b84880192505b85831015611bcc57823584811115611bae5760008081fd5b611bbc8a87838c01016119a4565b8352509184019190840190611b96565b98975050505050505050565b60008060008060808587031215611bee57600080fd5b843567ffffffffffffffff80821115611c0657600080fd5b611c12888389016119a4565b95506020870135915080821115611c2857600080fd5b611c34888389016119a4565b94506040870135915080821115611c4a57600080fd5b50611c5787828801611b39565b949793965093946060013593505050565b60008060408385031215611c7b57600080fd5b823567ffffffffffffffff80821115611c9357600080fd5b611c9f868387016119a4565b93506020850135915080821115611cb557600080fd5b50611a6e85828601611b39565b600080600060608486031215611cd757600080fd5b505081359360208301359350604090920135919050565b600060208284031215611d0057600080fd5b6106418261186f565b600181811c90821680611d1d57607f821691505b602082108103611d3d57634e487b7160e01b600052602260045260246000fd5b50919050565b600083516020611d5682858389016118e1565b818401915060008554611d6881611d09565b60018281168015611d805760018114611d9557611dc1565b60ff1984168752821515830287019450611dc1565b896000528560002060005b84811015611db957815489820152908301908701611da0565b505082870194505b50929998505050505050505050565b60008351611de28184602088016118e1565b835190830190611df68183602088016118e1565b01949350505050565b60008251611e118184602087016118e1565b9190910192915050565b600060208284031215611e2d57600080fd5b5051919050565b634e487b7160e01b600052603260045260246000fd5b634e487b7160e01b600052601160045260246000fd5b600060018201611e7257611e72611e4a565b5060010190565b601f821115611ec357600081815260208120601f850160051c81016020861015611ea05750805b601f850160051c820191505b81811015611ebf57828155600101611eac565b5050505b505050565b815167ffffffffffffffff811115611ee257611ee261195d565b611ef681611ef08454611d09565b84611e79565b602080601f831160018114611f2b5760008415611f135750858301515b600019600386901b1c1916600185901b178555611ebf565b600085815260208120601f198616915b82811015611f5a57888601518255948401946001909101908401611f3b565b5085821015611f785787850151600019600388901b60f8161c191681555b5050505050600190811b01905550565b60008351611f9a8184602088016118e1565b601160f91b9083019081528351611fb88160018401602088016118e1565b61088b60f21b60019290910191820152600301949350505050565b7f546865204d65726b6c65207472656520666f722065666665637469766520646181526203a32960ed1b6020820152600084516120178160238501602089016118e1565b64206973205b60d81b602391840191820152845161203c8160288401602089016118e1565b7f5d616e6420746865206d65726b6c6520726f6f7420697320000000000000000060289290910191820152835161207a8160408401602088016118e1565b0160400195945050505050565b86815260c0602082015260006120a060c0830188611905565b6001600160a01b039690961660408301525063ffffffff938416606082015291909216608082015260a0015292915050565b6000602082840312156120e457600080fd5b8151801515811461064157600080fd5b8082018082111561049757610497611e4a565b808202811582820484141761049757610497611e4a565b60008161212d5761212d611e4a565b50600019019056fea2646970667358221220639f5f5a37e02616911fb90f8b7093045b07af5aac92dc20de617cf7faf410ba64736f6c63430008110033",
    "linkReferences": {}
  },
  "methodIdentifiers": {
    "addressConcatLeaf(address,uint256)": "1e131bf2",
    "arbitrator()": "6cc6cde1",
    "challengePeriod()": "f3f480d9",
    "checkAnswer(uint256)": "ad891ad4",
    "checkAnswerStatus(uint256)": "71c0d915",
    "claim(uint256,uint256,uint256)": "efa9a9be",
    "getDateByRoot(string)": "581d8f36",
    "getQIDByDate(uint256)": "3c646787",
    "getRootByDate(uint256)": "291637a2",
    "getTreeByDate(uint256)": "657d7ab8",
    "mapDateAddressPay(uint256,address)": "14a0db9b",
    "mapDateQuestionID(uint256)": "4d0676d8",
    "mapDateRoot(uint256)": "cd09abec",
    "mapDateToAnswer(uint256)": "bffd8893",
    "mapDateTree(uint256,uint256)": "561444eb",
    "mapRootToDate(string)": "e20dee50",
    "owner()": "8da5cb5b",
    "postQuestion(string,string[])": "e1964a69",
    "renounceOwnership()": "715018a6",
    "rootExists(uint256)": "76a5cef3",
    "space()": "27af9e38",
    "stringToHash(string,string)": "3127718d",
    "toHex(bytes32)": "49e894d8",
    "transferOwnership(address)": "f2fde38b",
    "verify(string,string,string[],uint256)": "7d77869e"
  },
  "id": 29
}